:020000040000FA
:0600000065EF04F01200A0
:020006001200E6
:0600080049EF01F01200B7
:02000E000000F0
:0100100000EF
:050011000200000000E8
:0600180023EF01F01200CD
:02001E000400DC
:1000200004090000C30000000B00000011000000E4
:10003000D8000000050000000E000000DD000000F8
:1000400003000000E6080000A50000001E000000FC
:10005000D9CFE6FFE1CFD9FFE652DF6ADF50E76E86
:10006000FD0EDBCFE9FFFE0EDBCFEAFFE750E9260E
:10007000000EEA22EF5002E0DF2AF0D7DF50E76EF1
:10008000FD0EDBCFE9FFFE0EDBCFEAFFE750E926EE
:10009000000EEA22FC0EDBCFEFFFDF28E76EFD0E3D
:1000A000DBCFE9FFFE0EDBCFEAFFE750E926000ECB
:1000B000EA22EF6AE552E552E7CFD9FF1200D9CF25
:1000C000E6FFE1CFD9FFFB0EDBCFF6FFDB2AFC0E0C
:1000D000DBCFF7FF01E3DB2A0800F550E66EFD0EEB
:1000E000DBCFE9FFDB2AFE0EDBCFEAFF01E3DB2AF1
:1000F000E552E750EF6E01E0E6D7E552E7CFD9FFD2
:100100001200926A896AC00E93168A16180E941607
:100110008B16956A8C6AF80E96168D167E6A7F6A23
:100120001200D9CFE6FFE1CFD9FFE652D382D380C8
:10013000D398D38AD38CD190D08EF28EF28CE1DF1B
:1001400062EC02F0EBEC03F0C2EC02F053EC02F0D4
:100150000001200E726F736F746F420E756F4F0E39
:10016000766F776F540E786F490E796F4E0E7A6FF7
:10017000470E7B6F2E0E7C6F7D6F7E6F200E7F6F24
:10018000806F816F826B0001010EDB6FDF6A090EE9
:10019000DF5C09E2E66ADFCFE6FF66EC03F0E552DA
:1001A000E552DF2AF4D717D00001570EA56F6F0E66
:1001B000A66F720EA76F6B0EA86F730EA96F3F0E1E
:1001C000AA6FAB6BA50EE66E000EE66EA4EC02F015
:1001D000E552E552E8D70001DA5113E0DA6B00018D
:1001E000DF5101E1FCD75DEC02F00001DF5101E1DC
:1001F000FCD7610EE66E000EE66EA4EC02F0E5524E
:10020000E5520001DB5119E0DB6B0001DF5101E138
:10021000FCD75DEC02F00001DF5101E1FCD758ECA6
:1002200002F00001DF5101E1FCD7720EE66E000E14
:10023000E66EA4EC02F0E552E552CDD7E552E55268
:10024000E7CFD9FF1200D8CFE4FFE0CFE4FFE46EA0
:10025000DACFE4FFE2CFDAFFE652F2A411D0D59E66
:10026000C10ED66E0001010EDF6F0001DD07000E2A
:10027000DE5BDD51DE1103E00001DF6BD58EF29411
:10028000E552E5CFDAFFE550E5CFE0FFE5CFD8FF57
:100290001000DACFE4FFE2CFDAFFE9CFE4FFEACFE4
:1002A000E4FFF6CFE4FFF7CFE4FFF5CFE4FFF3CFB1
:1002B000E4FFF4CFE4FFFACFE4FF00EE00F0020E1B
:1002C000E80403E3EECFE4FFFBD700EE02F0020EFA
:1002D000E80403E3EECFE4FFFBD7E652D9CFE6FF15
:1002E000E1CFD9FF140EE126D9CFE9FFDACFEAFF3B
:1002F000EE6AEE6AEE6AEE6AEE6AEE6AEE6AEE6A3E
:10030000EE6AEE6AEE6AEE6AEE6AEE6AEE6AEE6A2D
:10031000EE6AEE6AEE6AEE6A9EA008D0CD90CF68D3
:10032000B40ECE6ECFEC02F09E90CD809EA626D06D
:10033000C6AC06D0C69CC7A0FED7C9CF60F01CD003
:10034000C7A0FED7C9CF60F0C750040B05E1C75066
:10035000200B02E10001D96BC750040B0DE1C7501F
:10036000200B0AE060C0E6FFD9C0E6FF78EC03F09E
:10037000E552E5520001D92B9E96C688140EE15C29
:1003800002E2E16AE552E16EE552E7CFD9FFE552BC
:1003900000EE03F0020EE80403E3E5CFEDFFFBD728
:1003A00000EE01F0020EE80403E3E5CFEDFFFBD71A
:1003B000E5CFFAFFE5CFF4FFE5CFF3FFE5CFF5FF9B
:1003C000E5CFF7FFE5CFF6FFE5CFEAFFE5CFE9FFA1
:0603D000E5CFDAFF110089
:0A03D600D9CFE6FFE1CFD9FFD59E95
:1003E000C10ED66ED59AD596D584D592D590FD0EF0
:1003F000DBCFDDF0FE0EDBCFDEF0F194F294F28A7B
:10040000D58EE552E7CFD9FF1200D9CFE6FFE1CF75
:10041000D9FF8B9E8A88F00E8A16FE0EDB50F00BF9
:10042000E8380F0B8A128A988A88F00E8A16FE0E18
:10043000DB500F0B8A128A980001DF6B010EE66E0B
:10044000E66AC9DFE552E5520001DF5101E1FCD760
:10045000E552E7CFD9FF1200D9CFE6FFE1CFD9FFB0
:100460008B8E8A88F00E8A16FE0EDB50F00BE83871
:100470000F0B8A128A988A88F00E8A16FE0EDB50BD
:100480000F0B8A128A980001DF6B010EE66EE66A96
:10049000A2DFE552E5520001DF5101E1FCD7E55250
:1004A000E7CFD9FF1200010EE66EAFDFE552120072
:1004B000C00EE66EAADFE5521200020EE66EA5DF60
:1004C000E5521200D9CFE6FFE1CFD9FF020EE126B7
:1004D0008B9C8A988B9E0001DF6B320EE66EE66A7B
:1004E0007ADFE552E5520001DF5101E1FCD7DE6A17
:1004F000DD6ADECF02F0DDCF03F0D890035004E6D2
:10050000030E025C000E035809E2280EE66E7DDF42
:10051000E552DF2A010E01E3DB2AEBD70C0EE66E73
:1005200074DFE552010EE66E70DFE552060EE66EF0
:100530006CDFE552020EE15C02E2E16AE552E16E37
:10054000E552E7CFD9FF1200D9CFE6FFE1CFD9FFBF
:10055000FD0EDBCFE9FFFE0EDBCFEAFFEF500EE032
:10056000FD0EDBCFE9FFDB2AFE0EDBCFEAFF01E366
:10057000DB2AEF50E66E70DFE552EAD7E552E7CFAF
:04058000D9FF12008D
:0C058400CD90CD8ECF68B40ECE6ECD921F
:10059000CD8ACD989F809E909D80CD801200D9CF2E
:1005A000E6FFE1CFD9FFE6528C6A896A8B908B9285
:1005B0008B948B9A0001CD51020A20E0030A1AE0C5
:1005C000010A01E01DD0010ECD6F080ECC5D02E2E4
:1005D000010E01D0000EE8B08A8AE8A08A9A080EBF
:1005E000CC5D05E2F80E8D14CC118D6E02D0F80EA4
:1005F0008D1667D0020ECD6F03D002D0CD6B61D0C7
:100600000001CC51EA6AC30FE96E000EEA22EFCF77
:10061000DFFFDF50080811E3010EDF5206E0DFCFF5
:10062000F3FFE846FE0BF306FCE1FF0F8C6E896AD0
:100630008B908B928B948B9A3ED0DF50080815E2FA
:10064000DF50100812E38C68080EDF5C026E010EAA
:10065000025204E0E846FE0B0206FCE1FF0F896E41
:100660008B908B928B948B9A26D0DF50100823E2CC
:10067000DF50140820E38C688968DF50140A16E004
:10068000070A0FE0010A08E0030A01E014D08B809A
:100690008B928B948B9A0FD08B808B828B948B9ABE
:1006A0000AD08B808B828B848B9A05D08B808B8237
:1006B0008B848B8A00D00001CC2B090ECC5D01E12C
:1006C000CC6BE552E552E7CFD9FF1200D9CFE6FF58
:1006D000E1CFD9FFFE0EDB50EA6AC30FE96E000ED0
:1006E000EA22FD0EDBCFEFFFE552E7CFD9FF120084
:1006F000D9CFE6FFE1CFD9FFFE0EDB5005E1FD0EBD
:10070000DBCFDCF056D055D00001DC51030A35E0D8
:10071000010A17E0030A01E04CD0FE0EDB50090885
:100720000FE3FD0EDBCFE6FFFE0EDBCFE6FF090E8B
:10073000E552D880E754E66E66EC03F0E552E552E8
:1007400038D0100EF36EFE0EDBCFF4FFF350F45CE6
:100750000BE2FE0EDB04EA6A610FE96E000EEA228C
:10076000FD0EDBCFEFFF08D0FD0EDBCF70F00001F8
:10077000716B0001010EDA6F1CD0100EF36EFE0ECD
:10078000DBCFF4FFF350F45C0BE2FE0EDB04EA6A0D
:10079000720FE96E000EEA22FD0EDBCFEFFF08D0EC
:1007A000FD0EDBCF81F00001826B0001010EDB6FDB
:1007B00000D0E552E7CFD9FF1200D9CFE6FFE1CF55
:1007C000D9FFFE0EDB50E8B0C68AE8A0C69AE55213
:1007D000E7CFD9FF12009F869E96C686C694C69222
:1007E000C680F00EC86EC696C684C682C690C69AEB
:1007F000D8C0C8FFC688C59EC580C69CC9CF60F05A
:0C0800009D86010EE66ED9DFE552120065
:04080C001E0EF66E58
:10081000000EF76E000EF86E00010900F550D36F60
:100820000900F550D46F03E1D36701D03DD0090032
:10083000F550CE6F0900F550CF6F0900F550D06F1D
:1008400009000900F550E96E0900F550EA6E09004B
:1008500009000900F550D16F0900F550D26F090069
:100860000900F6CFD5F0F7CFD6F0F8CFD7F0CEC04D
:10087000F6FFCFC0F7FFD0C0F8FF0001D15302E16F
:10088000D25307E00900F550EE6ED107F8E2D20727
:10089000F9D7D5C0F6FFD6C0F7FFD7C0F8FF0001E3
:0A08A000D307000ED45BBFD712008F
:0608AA00000EF36E00EEEB
:1008B00000F0030E01D81200EA6002D0EE6AFCD705
:0A08C000F350E9601200EE6AFCD765
:0608CA0012EE00F022EE28
:1008D00000F0F86A019C06EC04F003EC00F091ECE7
:0608E00000F0FBD712003E
:0A08E6000000000000000000000008
:1008F00000000000000000000000000000000000F8
:0409000000000000F3
:0B0904000000000000000000000000E8
:00000001FF
